:020000040800F2
:1000000000000824F9C20008F1CE0008F3CE000871
:10001000F5CE0008F7CE0008F9CE00080000000079
:10002000000000000000000000000000B10800080F
:10003000FBCE00080000000041090008FDCE0008CA
:1000400049C3000849C3000849C3000849C3000860
:1000500049C3000849C3000849C3000849C3000850
:1000600049C3000849C3000849C3000849C3000840
:1000700049C3000849C3000849C3000849C3000830
:1000800049C3000849C3000849C3000849C3000820
:1000900049C3000849C3000849C3000849C3000810
:1000A00049C3000849C3000849C3000849C3000800
:1000B00049C3000849C3000849C3000849C30008F0
:1000C00049C3000849C3000849C3000849C30008E0
:1000D00049C3000849C3000849C3000849C30008D0
:1000E00049C3000849C300080000000049C30008D4
:1000F00049C3000849C3000849C3000849C30008B0
:1001000049C3000849C3000849C3000849C300089F
:1001100049C3000849C300088DC6000849C3000848
:1001200049C3000849C3000849C3000849C300087F
:1001300049C3000801CF000849C3000849C30008AB
:1001400000000000000000000000000000000000AF
:1001500049C3000849C3000849C3000849C300084F
:1001600049C3000849C3000849C3000849C300083F
:1001700049C3000849C3000849C300080000000043
:1001800049C3000849C3000849C3000849C300081F
:1001900049C3000849C3000849C3000849C300080F
:1001A00049C3000849C3000849C3000849C30008FF
:1001B00049C3000849C3000849C3000849C30008EF
:1001C00049C3000849C3000849C3000849C30008DF
:1001D00049C3000849C3000849C3000849C30008CF
:1001E00049C3000849C3000849C3000849C30008BF
:1001F00049C3000849C3000849C3000849C30008AF
:1002000049C3000849C3000849C3000849C300089E
:1002100049C3000849C3000849C3000849C300088E
:1002200049C3000849C3000849C300080000000092
:1002300049C3000849C300080000000049C3000882
:1002400049C3000849C3000849C3000849C300085E
:1002500049C3000849C3000849C3000849C300084E
:1002600049C3000849C3000849C3000849C300083E
:1002700049C3000849C3000849C300080000000042
:1002800049C3000849C3000849C300080000000032
:080290000000000049C3000852
:1002A00010B5054C237833B9044B13B10448AFF3B0
:1002B00000800123237010BD6019002000000000A1
:1002C00064E2000808B5034B1BB103490348AFF3D0
:1002D000008008BD000000006419002064E20008EE
:1002E00010F8012B11F8013B012A28BF9A42F7D0E0
:1002F000D01A7047034613F8012B002AFBD1181AB5
:1003000001387047000000000000000000000000FD
:1003100001F0FF01102A2BDB10F0070F08D010F8B6
:10032000013B013A8B422DD010F0070F42B3F6D1BA
:10033000F0B441EA012141EA014122F007047FF0D3
:1003400000070023F0E80256083C85EA010586EA2A
:10035000010685FA47F5A3FA87F586FA47F6A5FA66
:1003600087F68EB9EED1F0BC01F0FF0102F0070272
:1003700032B110F8013B013A83EA010313B1F8D11D
:100380000020704701387047002D06BF35460338FE
:10039000073815F0010F07D1013015F4807F02BF37
:1003A000013015F4C03F0130F0BC0138704700BF88
:1003B0000F4B10B51A68824218D35C68191988422D
:1003C00001BF4168184609195960446801198A42F9
:1003D00007D1084909688A421FBF51681268091984
:1003E00041609842026018BF186010BD1346E1E7F3
:1003F0008C7D00207C1900202DE9F041044607F097
:1004000023FA3B4B3B481A689C46D2B93A4B002131
:100410003A4A5D0751601CBF073323F0070313609E
:10042000374A22F00702C2E90011D11ACCF80020A5
:10043000C3E90021334B1960334B19604FF000437F
:100440000360076827424ED1002C3FD004F1080317
:1004500059071CBF23F007030833002B43D02A4A57
:10046000166890469E423ED3244A156869689942B0
:1004700001D22868A8B9DCF80000A84233D0C91A14
:10048000286814681029106012D9E81842070BD0A8
:100490004FF0500383F31188BFF36F8FBFF34F8F7B
:1004A000FEE72A460546E1E741606B60FFF780FF03
:1004B0006B6808341349F61A1F4308680023C8F80C
:1004C000006086426F602B6038BF0E6007F064FAF0
:1004D00063070AD04FF0500383F31188BFF36F8F87
:1004E000BFF34F8FFEE70024F0E72046BDE8F08120
:1004F0007C190020807D0020801900208C7D002048
:10050000787D0020887D0020847D002010B5044681
:1005100070B3184A50F8043C1268134208D14FF0E7
:10052000500383F31188BFF36F8FBFF34F8FFEE744
:1005300050F8081C41B14FF0500383F31188BFF30A
:100540006F8FBFF34F8FFEE723EA020340F8043CAE
:1005500007F07AF9084A54F8043CA4F1080011683D
:100560000B441360FFF724FFBDE8104007F014BAF6
:1005700010BD00BF807D0020847D002008B507F0FD
:1005800027F9002008BDEFF305830BB107F06AB926
:1005900007F062B930B5B0F9084085B0028A0B4661
:1005A000842CD0E9001514BF0334002403A8CDE93E
:1005B0000040284606F084FF01280CBF0398002065
:1005C00005B030BD08B507F063F8002008BD00286D
:1005D00008B508BF012007F055FA002008BD01202A
:1005E00006F022BC13B500240194E0B1EFF30583BB
:1005F0009BB101AA214606F04BFE012811D1019BB7
:1006000013B9002002B010BD084B4FF080521A60A1
:10061000BFF34F8FBFF36F8FF3E706F075FD01282F
:10062000EFD0FF20EEE78020ECE700BF04ED00E014
:1006300013B500240194EFF3058393B101A906F0EB
:100640006FFC012813D1019B13B9002002B010BD2B
:10065000084B4FF080521A60BFF34F8FBFF36F8F7C
:10066000F3E71A46194606F02DFB0128EDD0FF20CE
:10067000ECE700BF04ED00E010B5EFF305841CB912
:1006800006F08CFE204610BD8224FBE701290846B7
:1006900010B50CD10322002106F0D2FA044620B195
:1006A00000231A46194606F00DFB204610BDBDE892
:1006B000104006F0E9BA000013B500240194E0B13F
:1006C000EFF305839BB101AA214606F0E1FD012865
:1006D00011D1019B13B9002002B010BD084B4FF09F
:1006E00080521A60BFF34F8FBFF36F8FF3E706F0AE
:1006F0000BFD0128EFD0FF20EEE78020ECE700BFE4
:1007000004ED00E0FFF794BFFFF7B6BF0022D0E989
:10071000000106F095BA00001FB50024002A0191DF
:10072000039408BF0122EFF30583A3B1234603AA74
:1007300001A906F094FB012812D1039B13B90020F4
:1007400004B010BD074B4FF080521A60BFF34F8FBB
:10075000BFF36F8FF3E701A906F0B4FA0128EED0DA
:10076000FF20EDE704ED00E07FB5002304461646C8
:100770000846039101AD029311B98023019316E05D
:100780000093EFF30583CBB16A4602A906F080FD22
:1007900001280CBF102300230193009B3BB10D4B9C
:1007A0004FF080521A60BFF34F8FBFF36F8F95E801
:1007B000070084E80700204604B070BD02A906F0D7
:1007C00003FC012801D11023D8E7002E18BF4026D2
:1007D0000196ECE704ED00E008B507F0FFFA012808
:1007E00003D0BDE8084000F0DDB808BD08B507F04B
:1007F000FFFB002008BDEFF305830BB106F0AABD97
:1008000006F095BDFFF738BF08480068006880F320
:1008100008884FF0000080F3148862B661B6BFF319
:100820004F8FBFF36F8F00DF00BF000008ED00E0C7
:10083000DFF80C00016841F47001016070470000AE
:1008400088ED00E0002382B001930D4B1B6801335B
:1008500008D04FF0500383F31188BFF36F8FBFF3BD
:100860004F8FFEE74FF0500383F31188BFF36F8F74
:10087000BFF34F8F019B002BFCD002B0704700BF2D
:10088000000000204FF0807321F0010140F8202C7F
:1008900044380364034BC16383636FF00203036254
:1008A000704700BF4508000800000000000000007D
:1008B000074B19680868B0E8F04F80F30988BFF368
:1008C0006F8F4FF0000080F311887047AFF3008006
:1008D000B07E00204FF0500383F31188BFF36F8F79
:1008E000BFF34F8F0A4A13680133012B13600DD1F8
:1008F000084B1B6813F0FF0F08D04FF0500383F331
:100900001188BFF36F8FBFF34F8FFEE7704700BFB3
:100910000000002004ED00E0084A136843B94FF0DE
:10092000500383F31188BFF36F8FBFF34F8FFEE740
:10093000013B13600BB983F311887047000000205E
:10094000EFF30980BFF36F8F154B1A681EF0100F7D
:1009500008BF20ED108A20E9F04F10602DE9090052
:100960004FF0500080F31188BFF34F8FBFF36F8FAC
:1009700007F0ACF84FF0000080F3118809BC19684B
:100980000868B0E8F04F1EF0100F08BFB0EC108AF6
:1009900080F30988BFF36F8F704700BFAFF300800B
:1009A000B07E002008B54FF0500383F31188BFF3E9
:1009B0006F8FBFF34F8F06F05DFF18B1034B4FF001
:1009C00080521A60002383F3118808BD04ED00E013
:1009D0000023084A084913600B604FF47A71074BF3
:1009E0001B68B3FBF1F30649013B0B60072313605F
:1009F000704700BF10E000E018E000E02000002099
:100A000014E000E0374B384A13B51968914208D119
:100A10004FF0500383F31188BFF36F8FBFF34F8FF5
:100A2000FEE71A68314B9A4208D14FF0500383F326
:100A30001188BFF36F8FBFF34F8FFEE72C4B002160
:100A40001A78D2B20192FF221A701B78294ADBB2BF
:100A50008DF803309DF8033003F050031370072323
:100A6000254A13609DF803005C1E00060CD411B1EA
:100A7000032B136011D04FF0500383F31188BFF3A1
:100A80006F8FBFF34F8FFEE79DF8033001215B00AE
:100A9000DBB28DF803302346E4E74FF440730024C3
:100AA0001360019B124ADBB21370144B1A6842F4B4
:100AB00070021A601A6842F070421A60FFF788FFED
:100AC0000F4B1C60FFF7B4FE0E4A136843F040431F
:100AD0001360FFF799FE06F0F9FFFFF7B3FE20461B
:100AE00002B010BD00ED00E071C20F4170C20F41B5
:100AF00000E400E0947D0020987D002020ED00E0DF
:100B00000000002034EF00E0EFF305830F2B0ED937
:100B1000104A9B5C104A12789A4208D94FF0500351
:100B200083F31188BFF36F8FBFF34F8FFEE70B4B3B
:100B30000B4A1B68126803F4E063934208D94FF034
:100B4000500383F31188BFF36F8FBFF34F8FFEE71E
:100B5000704700BFF0E300E0947D00200CED00E062
:100B6000987D002043890E2B70B504460D4614D99C
:100B7000406803788689D9070AD5012B11D14378BB
:100B800033B983785E2B03D1637B43F01003637327
:100B9000082E10D0B6F5C16F1ED0204609F072FEA7
:100BA00018E0062214490CF0D5F90028F0D1637B37
:100BB00043F00803EBE795F833301A07EDD56FF0F3
:100BC0000D01204609F058FE0028E6D129462046AE
:100BD00002F0BCF9002070BD95F833301B07DCD55E
:100BE0006FF00D01204609F047FE0028D5D12946B7
:100BF000204602F0BDFFEDE7CCE200082DE9F04110
:100C00000D460446BDF8180016461F4609F0B0FD13
:100C10000E218046284609F02FFEE0B96968A1F848
:100C20000C803B680B60BB888B803368C1F8063052
:100C3000B3884B8194F82C30062B06D0084B4FF428
:100C40009672084908480CF0A9F9A369294620467C
:100C5000BDE8F04118476FF00100BDE8F08100BF2A
:100C6000D2E2000839E300086AE3000813B5042360
:100C700004460091684600210193FFF747FD20607C
:100C8000B0FA80F04009404202B010BD10B50446F1
:100C90000068FFF7B0FD2068BDE81040FFF7B2BD67
:100CA00008B500220068FFF737FD003018BF0120AB
:100CB000404208BDF0B5174685B006460D46FFF721
:100CC00062FC044677B13A46316801A8FFF74CFD53
:100CD000019B102B0DD1029B2B60FFF754FC001BD6
:100CE00005B0F0BD4FF0FF32316801A8FFF73CFDC1
:100CF000F1E74FF0FF30F3E71FB50C460022016823
:100D000001A8FFF731FD019B102B05BF029B0020BE
:100D10004FF0FF30236004B010BD0068003018BFF2
:100D20000120704700230360704773B50646002416
:100D30000D4601A801210194FFF7A8FC306030B1F5
:100D400045B92946FFF7B8FC284602B070BD4FF000
:100D5000FF30FAE72046F8E770B50E460546FFF784
:100D600012FC044646B131462868FFF7A5FC58B985
:100D7000FFF709FC001B70BD4FF0FF312868FFF73B
:100D80009BFC0028F8D1F3E74FF0FF30F3E7006851
:100D9000FFF7B8BC0068FFF7B7BC0068003018BFA9
:100DA00001207047002303607047000008B5034826
:100DB000FFF715FC024B186008BD00BF98E3000860
:100DC0007880002013B50023044601A80193FFF7A3
:100DD00006FC2060B0FA80F04009404202B010BD2D
:100DE0004FF0FF310068FFF7FDBB0068FFF720BC44
:100DF0007FB5CDE90101089901A8ADF80C100021DB
:100E0000CDE904131146FFF7C5FB07B05DF804FBFD
:100E100008B5044B4FF0FF311868FFF7E3FB0120E2
:100E200008BD00BF78800020014B1868FFF700BCA8
:100E30007880002030B570B1CC6864B18A6852B156
:100E40000B6943B10D6849688560C1608361C0E981
:100E50000424002030BD4FF0FF30FBE773B50023C2
:100E600046680446019366B1A36998470546A3699D
:100E70009847401BB0F5FA6FF9D90123002563604C
:100E800027E0836803B19847202300252360636926
:100E900001AA12213046984700281DDB019B03F070
:100EA0001F03B3421AD10025266020681F2833D8BB
:100EB0007DB923694FF400422946984700282EDB6C
:100EC000636901AA29462068984700280ADA6FF06A
:100ED0000405284602B070BD6FF004050136202ECF
:100EE000D5D1E2E7A36998470646019B1B0402D4CB
:100EF000002DB9D0EDE7A3699847801BB0F5FA7FC4
:100F000007D8636901AA0021206898470028ECDA15
:100F1000DDE76FF00105E8E76FF00205D9E76FF054
:100F20000305D6E737B500254369044601AA0195B4
:100F3000012100689847A84203DA6FF0040003B06B
:100F400030BD636901AA0121206898470028F4DBBD
:100F5000019B5B072CD5636901AA29462068984745
:100F60000028EADB019BDD040ED403F40452B2F541
:100F7000045F01D10220E2E7980401D50320DEE7F7
:100F8000D90513D50420DAE7636901AA1F21206877
:100F900098470028D1DB019BDA040BD503F01C0332
:100FA000182BE7D0082BE9D0142BEBD00520C6E78F
:100FB0000120C4E70620C2E7F8B5054608B90120BC
:100FC00089E00368DF075AD42B689E0700F1AF80E1
:100FD0002B68DA0623D5AD4B1A69996A02F03802FC
:100FE000082A07D0182A40F0038101F00302012AE1
:100FF00040F0FE801B68DB0502D5EB69802BDED15B
:1010000001F020FF41F20303A04A9842296A00F24E
:10101000E880536823F0F84343EA816353602B6808
:10102000190700F11F812B689A0600F144812B6893
:101030005C071ED5964C236843F48073236001F04F
:10104000FBFE06462368DA0540F15A81AB688F4CF7
:10105000012B40F05C81236F43F00103236741F2D1
:10106000883401F0E9FE894E0746336F9B0740F153
:1010700074816A6A002A40F0778100202BE0834B5C
:101080001A69996A02F03802102A05D0182A0AD182
:1010900001F00302022A06D11B689C0394D56B68F9
:1010A000002B91D18BE76A68B2F5803F14D11A68A2
:1010B00042F480321A6001F0BFFE744C064641F2E1
:1010C0008837236898033FF57FAF01F0B5FE801B9A
:1010D000B842F6D90320F8BD6C4C2368AAB923F4B2
:1010E000803341F288372360236823F48023236010
:1010F00001F0A2FE0646236899037FF565AF01F073
:101100009BFE801BB842F6D9E4E7B2F5A02F07D1C9
:1011100043F480232360236843F480332360CAE7C9
:1011200023F480332360236823F48023F6E7574BAE
:10113000E9681A69986A12F0380203D0182A27D190
:10114000820725D11B685B0702D500293FF437AF22
:101150004E4C226822F019020A43226001F06CFE14
:10116000064623685F070DD501F06CFE41F20303CC
:101170002A69984263681ED823F47C3343EA023319
:10118000636025E701F058FE801B0228E9D9A1E73A
:101190001A68A9B122F019023C4C0A431A6001F006
:1011A0004BFE064623685807DED401F045FE801B3F
:1011B0000228F7D98EE723F0FE4343EA0263DFE714
:1011C00022F00102314C1A6001F036FE0646236817
:1011D00059077FF5FDAE01F02FFE801B0228F6D9DE
:1011E00078E7D36823F07C5343EA0163D36016E7C2
:1011F000EA692AB31A68254C42F080021A6001F0AD
:101200001BFE06462368DF050DD501F01BFE41F2EB
:1012100003032A6A98420CD8636823F0F84343EA30
:1012200082636360FBE601F007FE801B0228E9D9B8
:1012300050E7E36823F07C5343EA0263E360EEE6A1
:101240001A68124C22F080021A6001F0F5FD064681
:101250002368D8057FF5E3AE01F0EEFD801B022880
:10126000F6D937E76B69094CA3B1636F43F001030B
:10127000636701F0E1FD0646636F9B073FF5D3AE60
:1012800001F0DAFD801B0228F6D923E7004402585A
:1012900000480258636F23F00103636701F0CCFD3F
:1012A0000646636F9F077FF5BEAE01F0C5FD801B4C
:1012B0000228F6D90EE7AB696C4C83B1236843F47E
:1012C0008053236001F0B8FD0646236898043FF57B
:1012D000AEAE01F0B1FD801B0228F6D9FAE6236814
:1012E00023F48053236001F0A7FD06462368990488
:1012F0007FF59DAE01F0A0FD801B0228F6D9E9E63E
:1013000001F09AFD801B64287FF69CAEE2E6B3B93B
:10131000236F41F2883723F001032367236F23F003
:101320000403236701F088FD0646236F98077FF5C5
:10133000A0AE01F081FD801BB842F6D9CAE6052BAC
:10134000236F03D143F00403236784E623F00103F2
:101350002367236F23F0040380E601F06DFDC01BBB
:10136000A0427FF682AEB5E6404C236903F0380315
:10137000182B3FF424AE2368022A23F080732360E5
:1013800067D101F059FD0646236899015BD4A36A31
:10139000AA6A23F47C7323F003031343EA6A43EA43
:1013A0000213A3626B6BAA6B013B013A5B0212044E
:1013B0009BB202F4FE0213432A6B013AC2F3080205
:1013C0001343EA6B013A120602F0FE421343236311
:1013D000E36A23F00103E362636BAA6C23F47F43A7
:1013E00023F0F80343EAC2036363E36A2A6C23F041
:1013F0000C031343E362E36A6A6C23F002031343B2
:10140000E362E36A43F48033E362E36A43F4003364
:10141000E362E36A43F48023E362E36A43F0010397
:10142000E362236843F08073236001F005FD0F4CF5
:10143000054623689A013FF520AE01F0FDFC401BF4
:101440000228F6D946E601F0F7FC801B02289BD95A
:1014500040E601F0F1FC054623689B017FF50DAEE7
:1014600001F0EAFC401B0228F6D933E6004402589A
:10147000474B1A6902F03802102A10B500F0848038
:10148000182A0CD0002A40F081801A68414812F0D6
:10149000200F03D01B68C3F3C103D84010BD996A65
:1014A000986ADA6AC0F305105C6B0028F6D0C4F3C2
:1014B000CC0402F0010207EE900A01F0030162433E
:1014C000B7EE006AF8EEE76A012907EE902AFAEE15
:1014D000E97A02D079B1022948D01B6BC3F3080323
:1014E00007EE103AB8EEC77A77EE277A77EE867A6B
:1014F0009FED296A37E01A68920627D51968254AB0
:10150000C1F3C1011B6BCA40C3F3080307EE102AE5
:10151000F8EEC75A85EEA67A06EE903AF8EEE66A3D
:1015200076EEA77A77EE867A194B67EE877A1B6B91
:10153000C3F34623013307EE103AF8EEC76A87EE8D
:10154000A67AFCEEC77A17EE900AA7E71B6BC3F3E7
:10155000080307EE103AB8EEC77A77EE277A77EEEF
:10156000867A9FED0E6A86EE267ADDE71B6BC3F363
:10157000080307EE103AB8EEC77A77EE277A77EECF
:10158000867A9FED076AEEE7064887E7064885E713
:10159000004402580090D0030024744A0024744C84
:1015A00020BCBE4B40787D0100093D002DE9F04193
:1015B0000D46044610B90120BDE8F081834A136846
:1015C00003F00F038B42C0F0898023685F0700F1AE
:1015D00091801E070BD57E496669C86900F07000CE
:1015E000864204D9CA6922F070023243CA61D80621
:1015F0000BD57749A669C86900F4E060864204D932
:10160000CA6922F4E0623243CA6199060BD5704977
:10161000E669086A00F07000864204D90A6A22F07E
:10162000700232430A629A070BD56949E6688869F5
:1016300000F00F00864204D98A6922F00F0232437B
:101640008A61DF0764D423689E0700F197805F49B1
:101650000A6802F00F02AA4200F29E80580700F1C9
:10166000A78019070BD55A496569C86900F0700051
:10167000854204D2CA6922F070022A43CA61DA069E
:101680000BD55349A569C86900F4E060854204D2CE
:10169000CA6922F4E0622A43CA619B060BD54C4A10
:1016A000E069116A01F07001884204D2136A23F0E4
:1016B000700303431362FFF7DBFE454B454A9B690A
:1016C000C3F30323D35C03F01F03D840424B1860DD
:1016D000424BBDE8F04118680AF092BF136823F04E
:1016E0000F030B431360136803F00F038B427FF467
:1016F00062AF6AE736492669886900F07000864261
:101700007FF667AF8A6922F0700232438A6160E730
:101710002F4BA1689A6922F470620A439A61626849
:101720001B68022A1DD113F4003F3FF444AF284E3A
:1017300041F28838336923F007031343336101F022
:101740007BFB07463369626803F03803B3EBC20FD3
:101750003FF479AF01F070FBC01B4045F2D9032084
:101760002AE7032A02D113F0007FDEE7012A02D123
:1017700013F4807FD9E713F0040FD6E71449E66825
:10178000886900F00F008642BFF461AF8A6922F0D9
:101790000F0232438A615AE70A6822F00F022A4395
:1017A0000A600A6802F00F02AA427FF404AF55E70C
:1017B00007492569886900F070008542BFF451AF80
:1017C0008A6922F070022A438A614AE700200052A7
:1017D00000440258E6100208200000200800002003
:1017E00008B500F02BFB064B064A9B6903F00F037C
:1017F000D35C03F01F03D840034B186008BD00BF43
:1018000000440258E61002082400002008B5FFF743
:10181000E7FF054B054ADB69C3F30213D35C03F012
:101820001F03D84008BD00BF00440258E61002085C
:101830003F230360114B1A6902F0070242609A6964
:1018400002F4706282609A6902F00F02C2609A69C3
:1018500002F070020261DA6902F070024261DA6934
:1018600002F4E06282611B6A03F07003C361044BFF
:101870001B6803F00F030B60704700BF0044025861
:101880000020005270477047704700002DE9F04F6C
:101890000B6885B0DFF8C0814FF0B0490193002399
:1018A000DFF8B8E1019ADA4002D105B0BDE8F08F67
:1018B0000127019A9F4017EA020500F0B7804A68A5
:1018C00022F01006022E16D14FEAD30A03F0070BBE
:1018D0004FF00F0C00EB8A0A4FEA8B0BDAF820402E
:1018E0000CFA0BFC24EA0C0C0C6904FA0BF444EA25
:1018F0000C04CAF820404FEA430A0324D0F800B091
:1019000002F0030C04FA0AF4013E0CFA0AFCE44368
:10191000012E04EA0B0B4CEA0B0CC0F800C010D8E7
:10192000866806EA040BCE6806FA0AFC4CEA0B0647
:101930008660466826EA0707C2F300169E403743D2
:101940004760C66834408E6806FA0AF63443C460BD
:10195000D4006BD5D8F8F44023F0030603F0030756
:101960004FF00F0C44F0020406F1B046BF00C8F877
:10197000F44006F58066D8F8F44004F002040394BD
:10198000039C0CFA07F4D6F808A02AEA040C314CA0
:10199000A0424DD004F58064A0424BD004F5806491
:1019A000A04249D004F58064A04247D004F5806489
:1019B000A04245D004F58064A04243D004F5806481
:1019C000A04241D004F58064A0423FD004F5806479
:1019D000A0423DD004F58064A0420CBF09240A2433
:1019E000BC40D70344EA0C04B4606FEA0506DEF895
:1019F000004054BF34402C439703CEF80040DEF83B
:101A0000044054BF34402C43D7024FF0B047CEF8C7
:101A10000440D9F8004054BF34402C4392023C604B
:101A20007C6854BF34402C43C9F80440013339E783
:101A30000024D5E70124D3E70224D1E70324CFE72C
:101A40000424CDE70524CBE70624C9E70724C7E72C
:101A50000824C5E7000002580044025880000058DE
:101A60000AB1816170470904FBE70000074A0002E0
:101A7000D36800F4E06023F4E0631B041B0C1843FC
:101A800040F0BF6040F40030D060704700ED00E0EF
:101A9000164B70B5DC684FF0FF36C4F30224C4F176
:101AA0000705231D042D28BF0425062B06FA05F57E
:101AB0008CBF033C0024002821EA050101FA04F14F
:101AC00006FA04F422EA040343EA01034FEA03138B
:101AD000DBB206DB00F1604000F5614080F80033C6
:101AE00070BD00F00F00024A1354F9E700ED00E06A
:101AF00014ED00E0002808DB4209012300F01F007C
:101B000003FA00F0014B43F82200704700E100E0C7
:101B1000BFF35F8F044A536A23F480335362002279
:101B2000024B5A60704700BF00ED00E090ED00E00E
:101B3000064A40F00100064B5860536A43F4803374
:101B40005362BFF34F8FBFF36F8F704700ED00E01C
:101B500090ED00E04378124A10B593600178D9B156
:101B60004368D360C37A047B1B0643EA04730B43C8
:101B7000817A43EAC143417B43EA8143817B43EA63
:101B80004143C17B43EA0143417A43EA0123017A9D
:101B900043EA4103136110BDD1601161FBE700BF4F
:101BA00090ED00E0704700000368DA6842F001023F
:101BB000DA60074A99680A40062A06D0B2F5803FE3
:101BC00003D01A6842F001021A600020704700BF7B
:101BD00007000100704770477047704703681A6933
:101BE000910710B504460FD5DA6892070CD56FF04F
:101BF00002021A6101229B690277990700F0858031
:101C0000FFF7E9FF0023237723681A69520710D5ED
:101C1000DA6850070DD56FF0040220461A610222DF
:101C20009B69227713F4407F75D0FFF7D4FF002320
:101C3000237723681A6911070FD5DA6812070CD5C4
:101C40006FF0080220461A610422DB6922779B07A5
:101C500067D0FFF7C0FF0023237723681A69D006F7
:101C600010D5DA68D1060DD56FF0100220461A6142
:101C70000822DB69227713F4407F58D0FFF7ABFFCF
:101C80000023237723681A69D20708D5DA68D007BA
:101C900005D56FF0010220461A610AF0F5FC2368B1
:101CA0001A69110608D5DA68120605D56FF08002A8
:101CB00020461A61FFF7E7FD23681A69D00508D5A9
:101CC000DA68110605D56FF4807220461A61FFF7B5
:101CD000DBFD23681A69520608D5DA68500605D577
:101CE0006FF0400220461A61FFF777FF23681A69F8
:101CF000910622D5DA6892061FD56FF020022046A1
:101D00001A61BDE81040FFF7BDBDFFF763FF204635
:101D1000FFF762FF76E7FFF75DFF2046FFF75CFF06
:101D200085E7FFF757FF2046FFF756FF93E7FFF7DA
:101D300051FF2046FFF750FFA2E710BD304A03686D
:101D4000904212D0B0F1804F0FD0A2F57C42904269
:101D50000BD002F58062904207D002F5806290427B
:101D600003D002F57842904219D14A6823F07003FB
:101D70001343234A90421DD0B0F1804F1AD0A2F5F0
:101D80007C42904216D002F58062904212D002F559
:101D9000806290420ED002F5784290420AD0194AF1
:101DA000904207D002F58062904203D002F5806233
:101DB000904203D123F44073CA6813434A6923F065
:101DC0008003134303608B68C3620B6883620C4B10
:101DD00098420FD003F5806398420BD003F57053FF
:101DE000984207D003F58063984203D003F58063DF
:101DF000984201D10B69036301234361704700BF1F
:101E0000000001400040014010B50446A0B190F828
:101E10003D3003F0FF021BB980F83C20FFF7C2FE03
:101E200002232068211D84F83D30FFF787FF01233E
:101E3000002084F83D3010BD0120FCE708B5FFF715
:101E400017FB064B064A9B69C3F30323D35C03F0DD
:101E50001F03D840034B186008BD00BF0044025860
:101E6000E6100208200000208B680A6891F80CC078
:101E70001A430B7C002B2DE9F04F08BF4FF40023D1
:101E800085B018BF002391F804E04F7B00934B7C92
:101E90008E7B002BCD7B8C7C0CBF4FF4003300235A
:101EA00091F81C9001934B6991F81DB01A438B690E
:101EB00013438A7F002A0CBF4FF4806200220292F3
:101EC000CA7F039291F82020002A0268486AD2F85B
:101ED00000A008BF4FF4807843EA0003C86A2AF0E4
:101EE0007F4A18BF4FF00008034303982AF47B0A87
:101EF0002AF4FE4A2AF07C0A43EA0A0343EACE6344
:101F000043EACC5343EA875343EA465343EA055333
:101F100043EA044343EA093343EACB2391F828B068
:101F200043EA4023009843EA0B1303430198034319
:101F30000298034343EA08031360CE6B91F83230F2
:101F400091F83870002B536891F8305023F07C538F
:101F500091F831400CBF4FF48030002023F4EF2380
:101F600023F4FF6323F0070343EA46634E6B3343D6
:101F70008E6C43EA076343EA85430D6D43EA4443AD
:101F800091F854400343486C5360D36823F487733B
:101F900023F00103034391F8400043EA0023D36098
:101FA00091F84C30002B136F23F0F2030CBF80200C
:101FB00000201B041B0C43EA06432B43CD6D43EA70
:101FC000440391F8614003431367D2F8900091F8FD
:101FD000563020F00300034391F8550043EA4003D4
:101FE000886DC2F89030D2F8003D23F072030343AD
:101FF000C2F8003D91F8603091F86210002BD2F8E1
:10200000303D23F07B030CBF402000202B4343EAEC
:10201000041343EAC1030343C2F8303D05B0BDE8F1
:10202000F08F0000026802F58050036823F4F0434B
:1020300030B523F002030C680D79234341F2040408
:1020400003600B7B1059DB0320F4504043EA053357
:102050008D6820F001002B430343487B135102F5A8
:1020600088540B6A256843EA00431048284003431C
:10207000087D236041F204144B7F15591B0343EA8A
:102080000013086903430A4828400D7F0343135196
:1020900041F208148B69105943EAC57320F00041DE
:1020A00021F47C110B43135130BD00BF00C0FEFF73
:1020B000EFEFC0FF2DE9F74F866A019200EB86092A
:1020C0008F68D9F81830DA68002A03DA022003B0E2
:1020D000BDE8F08F0C6814F0040C2AD0DD684A6A61
:1020E0002D0C2D042A430568DA60DA6842F4803248
:1020F000DA602A6E42F480122A66220719D59A689D
:102100001FFA82FECA6A4EEA02429A60DA6842F414
:102110000032DA60DA6822F4402E0A6B4EEA0202DC
:10212000DA606A6E42F480126A662A6D42F080625A
:102130002A6514F010080BD09D688A6925F47F5534
:1021400025F03F052A439A60DA6842F08062DA603F
:1021500014F0140E18D0DA68751C42F08042032D7A
:10216000DA6088BFF51EDA6842F00042DA6000EB00
:1021700085029269D2F80CE0BEF1000F6EDADA68DF
:1021800022F00042DA60A1E735463A680EF1010E0E
:102190001A609A6822F47F5A7A682AF03F0A4AEA5B
:1021A0000202DFF8ECA19A60BA68002A5AD01768D8
:1021B0005F609F6807EA0A0A57684AEA07479F6014
:1021C000DF68B8F1000F54D027F4F0080F6A48EA2E
:1021D000C747DF60DF684FEA9748CF694FEA884812
:1021E00048EA0707DF60DF6847F48027DF60BCF15B
:1021F000000F06D09F6827F4404C8F6A4CEA07070F
:102200009F60DF68A40747F00057DF60DF6827F0B2
:102210008047DF60DF6847F00047DF6005D5DF6893
:10222000CC6827F060773C43DC60594FDFF864B13D
:10223000DFF864C1D2F80880B8F1000F33D1019AF9
:10224000002A00F0A0809A6842F000429A60DA68A2
:1022500042F08052DA608562002038E713464FF082
:10226000010E92E75A609A6802EA0A029A603A46B8
:10227000A6E727F4FF484F6828F07F0848EA0707D9
:10228000DF60E70706D5DF6827F440384F6948EA82
:102290000707DF60A706AAD5DF6827F040680F6947
:1022A00048EA0707A2E76C1CDA68032C22F0805288
:1022B00088BFEC1EDA6000EB84039B69DA6822F0C9
:1022C0000052DA60DA68002A13DAD9F8181000220E
:1022D00096453FF4FBAECB68013223F00043CB6060
:1022E000731C032B88BFF31E00EB83011E46896914
:1022F000EEE7D8F800200EF1010E1A609D68D8F8BC
:10230000042025F47F5525F03F052A439A60D8F82C
:10231000082012B315685D609D6805EA07085568D6
:1023200048EA05459D60D1F800A0DD681AF0100F5D
:1023300019D005EA0C08CD6948EA0505DD60DD68BD
:1023400045F48025DD60DD6845F00045DD60DD6831
:1023500025F08045DD6025466CE75A609A683A4072
:102360009A604246DFE705EA0B084D681AF0010F54
:1023700048EA0505DD60E6D0DD6825F440384D69A2
:1023800048EA0505DEE79A6822F000425EE700BFF2
:10239000FFFF00C00080FFFF0000FCFF0AB103291F
:1023A00003D90123C3651846704700EB8100C16A59
:1023B0000A600A61CA6842F08072CA602BB18B6001
:1023C0004B61CB6843F00073CB60CB68002043F0D7
:1023D0000043CB607047436D102B10B543D12323CE
:1023E000C16A042243650023CC6844F08044CC6079
:1023F000591C03298CBF033B0B46013A00EB8301B8
:10240000C96AF1D1012341F20414C3640368196855
:1024100041F002011960196841F001011960D3F817
:10242000001D41F00101C3F8001D195941F00101DF
:10243000195141F20814195941F00101195103F5DC
:102440008B54216841F48171216010214165222162
:10245000816541F23410195841F4504141F0410175
:102460001950104610BD0120FCE7436D10B5002B3C
:1024700032D0232341F23414C16A436503681A59E8
:1024800022F4004222F041021A5141F204141A5976
:1024900022F001021A5141F208141A5922F00102E5
:1024A0001A511A6822F001021A60D3F8002D42F086
:1024B0000102C3F8002D1A6822F002021A600423F8
:1024C000CA68013B22F08042CA60F9D11022C3647D
:1024D00042658265184610BD0120FCE7F8B5044648
:1024E000154629B9C36D43F00103E365012025E0DA
:1024F000436D102BFAD10022FFF7DCFD18B1E36D1C
:1025000043F00203F1E7A36A9A1D54F822605A1CB3
:10251000032A8ABF033BA262A362A26A236806322F
:1025200003F5895354F822201A6000F085FC074611
:10253000F368002B03DB102300206365F8BD2368DC
:1025400003F58B531A68D20408D5E26D42F00802F5
:10255000E2651B682366E0236365C7E76B1CE7D071
:1025600000F06AFCC01BA84201D8002DE0D1E36D49
:1025700043F00403E3651023EEE7F0B5456C7DB945
:10258000C46B2A462946052700EB8403DE6AF368FC
:10259000002B01DB013F05D100293CD1002343641E
:1025A000002020E0D6F80CC0631C1CF0805F1BD01C
:1025B0000131012908BF2246032B88BFE31E00EB2F
:1025C0008304E46AE568002D09DBE468670006D54A
:1025D000012484641C19032C8CBF033B23464164F3
:1025E000C0E90F320120F0BDF668B6000AD5032B12
:1025F0004FF0010188BFE31E00EB8302D66A22463A
:102600001C46C4E7032B01F1010188BFE31E00EB68
:102610008304E66AF4E700EB82034FF08076DB6A1E
:102620001C691C60DE605C692CB15C699C60DC68C4
:1026300044F00074DC60DC6844F00044DC60C46C8E
:102640001CB1DC6844F08044DC60531C0135032B72
:102650008CBF033A1A46A94200EB8203DB6ADFD142
:102660009CE7F8B505460C4611B90120E865F8BDB0
:10267000436CB3B1296C00266A6C05EB8103686971
:1026800002F1FF3C3746DB6ABC4510D8DA681969AD
:10269000C2F30E022160921B90421FD362600020A1
:1026A000E5E7FFF76AFF0028E4D10120DFE71A69B8
:1026B000C4E900205A691AB1A4685A69C4E9002023
:1026C0004A1CDE68A4680137032AC6F30E0688BFD9
:1026D000CA1E05EB82031146DB6AD5E7596900295A
:1026E000E3D0A168121A5B6960600B604A60D6E7AC
:1026F00070B5D0E9105304460E466BB1636C2B44A1
:102700005A1E032A0ED804EB82040020E36ADB6819
:10271000C3F30E03336070BDFFF72FFF0028EDD128
:102720000120F8E75A1FEEE7416CF0B5002937D0D9
:10273000836C93B14E1C056C00244FF080770139F7
:1027400000EB8503DB6AA64209D1016841F2281239
:102750008B50002343641846F0BD0E46EBE71A6920
:102760001A60DF605A692AB15A699A60DA6842F0E1
:102770000072DA60DA6842F00042DA60C26C1AB1C4
:10278000DA6842F08042DA60A14207D96A1C032A63
:1027900088BFEA1E00EB82031546DB6A0134D2E7EC
:1027A0000120D9E7704770477047704770477047FE
:1027B000036803F58B521268520610B504460CD517
:1027C00041F234129B58590607D50AF01FFA2368C4
:1027D00048F2400203F58B531A60236803F58B52CD
:1027E0001268D2070DD541F234129B58D80708D58C
:1027F0002046FFF7D7FF236848F2010203F58B5309
:102800001A60226802F58B53196849041CD541F2FD
:1028100034115058400417D5E06D40F00800E065D1
:102820001868C0044BD51B6823F46F6323F00D03B5
:10283000DB04DB0C2366535823F440435350E0235E
:1028400063652046FFF7AFFF2268D2F8B03003F48B
:10285000C043B3F5C04F09D1D2F8B8302046636603
:10286000E0236365FFF7A0FF002363662368D3F8C6
:10287000B020D00609D5D3F8C030204603F060035D
:10288000A366FFF792FF0023A3662368D3F8B02066
:10289000910609D5D3F8C030204603F00F03E36654
:1028A000FFF784FF0023E366094B9A6A520205D5BD
:1028B0004FF4800220469A62FFF779FF10BD1A6834
:1028C00002F4CD4222664FF4CD421A60B9E700BF50
:1028D0008000005870B5044600681D46D0F80032EC
:1028E000DB0701D5012070BDD0F8003223F07873EA
:1028F00043EA415323F4F81343EA024343F00D0340
:10290000C0F8003200F098FA06462368D3F80002B7
:1029100010F0010004D1D3F804329BB22B60E2E73F
:1029200000F08AFA801BB0F57A7FEED9DAE7000072
:1029300038B505680446D5F80002C00701D5012066
:1029400038BDD5F800029BB220F0787040EA4150C3
:1029500020F4F81040EA02400C4A20F00C00C2F8C3
:10296000043240F00500C2F8000200F065FA0546A6
:102970002368D3F8000210F00100E1D000F05CFA07
:10298000401BB0F57A7FF3D9D9E700BF0080024041
:10299000002900F0C180036800201A6802F00C02D0
:1029A000CA621A68C2F3001281F828201A6802F07D
:1029B00060024A621A6882F48072C2F3002281F8CF
:1029C00020201A68C2F34022CA771A6882F4806213
:1029D000C2F380228A771A68C2F3C0224A771A6843
:1029E000C2F300320A771A6802F400528A611A6848
:1029F00002F480424A611A68C2F300428A741A687B
:102A000082F40032C2F340424A741A6882F400220F
:102A1000C2F3C0420A741A68C2F30052CA731A6839
:102A2000C2F340528A731A68C2F380524A731A681A
:102A3000C2F3C0520A731A6802F0E0628A601A6830
:102A4000C2F3C0620A711A6802F0E0420A605A6872
:102A5000C2F30D024A635A6882F48032C2F3004224
:102A600081F832205A68C2F3404281F831205A6816
:102A7000C2F3804281F830205A68C2F3006281F8C4
:102A800038205A68C2F34462CA63DA68C2F300228B
:102A900081F84020DA6802F00F024A641A6FC2F32C
:102AA000400281F854201A6F82F08002C2F3C012F3
:102AB00081F84C201A6F02F070020A651A6F120C2E
:102AC0008A64D3F8902002F0010281F85620D3F8EE
:102AD0009020C2F3400281F85520D3F8002D02F077
:102AE00072028A65D3F8302D02F02302CA65D3F84A
:102AF000302DC2F3C00281F86220D3F8302DD3F814
:102B0000303DC2F3001283F0400381F86120C3F32B
:102B1000801381F8603070470120704708B531B1EB
:102B2000836D102B03D1FFF79FF9002008BD012012
:102B3000FCE7000038B503680546D3F80042FEF70D
:102B40004FFE124B124A24F470640344934205D89A
:102B500044F400742B68C3F8004238BD0D4B0E4A94
:102B60000344934202D844F44074F3E70B4B0C4AFD
:102B700003449342EED90B4B0B4A0344934294BF58
:102B800044F4807444F48064E4E700BF00D3CEFED4
:102B9000BFE1E40040F1E9FD3F787D0100796CFC84
:102BA000FF596202001F0AFA7FF0FA0270B504466C
:102BB000A4B0002800F0A680436D0BB909F09AFF7D
:102BC0002323207A63657B4BD3F8F42042F0020282
:102BD000C3F8F420D3F8F43003F002030193019B0F
:102BE000002840F0828000F033F9236803F5805319
:102BF0001A6842F001021A6000F01EF906462368C6
:102C000003F580531D6815F0010571D1204601269A
:102C1000FFF790FFFEF7E4FD674B4FF48041226819
:102C200014958DF830608DF854508DF864501A95D5
:102C30001D958DF86C508DF84C60ADF88C608DF85A
:102C40008E501F95ADF880508DF882501695ADF8D6
:102C50005C508DF85E600D958DF83E501C958DF89A
:102C60007860B0FBF3F04FF4C363013818934FF072
:102C70004053C2F8DC0002200B934FF40053CDE91F
:102C800010134FF480330BA912932023CDE92103B5
:102C90004A4B20460E9340F20113ADF83C30FFF74B
:102CA000E3F84FF4001302A920468DF80C60069358
:102CB00008934FF4067302950A930496ADF81450E6
:102CC0008DF81C50ADF82450FFF7ACF9236860690B
:102CD00003F588510A6822F4E01242F400220A60E7
:102CE00010F0030110D0E6650AE04FF400007AE727
:102CF00000F0A2F8801BB0F5FA7F80D90423E365C9
:102D0000E0236365012052E041F208155A5922F48C
:102D1000FF4222F07E0242EA4002E0685A5100F18E
:102D2000600604F118050246116051609160D1609F
:102D300045F8042B1832B242F6D1A16241F22C12AE
:102D400003210025995041F214122169985003F58E
:102D5000895201F16006106004F12C000A461560EA
:102D600055609560D5601561556140F8042B1832A7
:102D7000B242F4D141F2301203206564C4E90F5528
:102D8000C4E91255985041F21C120020995001F5E7
:102D9000D86141F22812995062689188C3F80013F3
:102DA0001268C3F804231023E5656365A36524B0A6
:102DB00070BD00BF0044025840420F0000000101F6
:102DC0007047000010B50320FEF750FEFEF750FBE1
:102DD0000F49104A8B69C3F30323D35C03F01F032D
:102DE000D8400D4B18608B6903F00F03D35C03F0E0
:102DF0001F03D840094B18600F2009F001FC04465E
:102E000018B9FFF7DDFF204610BD0124FBE700BF26
:102E100000440258E6100208200000202400002090
:102E2000034A044B11681B780B441360704700BFC2
:102E30007C80002004000020014B1868704700BF10
:102E40007C800020014B1868000C70470010005C6B
:102E5000034A536823F4600318435060704700BF6F
:102E600000040058114A38B5D368114613F0040F16
:102E700004D1D26802F00702824215D1CB680B4C14
:102E800023F007030343CB60FFF7D6FF05466368D3
:102E90009B0401D5002038BDFFF7CEFF401BB0F5E5
:102EA0007A7FF4D90320F6E70120F4E700480258BE
:102EB00070B50E460546A8B1A1B10C4C616830460C
:102EC000FDF70EFA40B9A3682B60E368E860C5E936
:102ED0000133237C2B7470BD2468002CEED16FF07D
:102EE0000500F8E76FF00F00F5E700BFBCE301084D
:102EF00070470000134B30B51B686BB9124A12685B
:102F0000EAB192F8331001F00501052917D1516893
:102F1000002918BF134612E093F83310CD07EBD504
:102F20004C07E9D55A68002AE6D004689D686240DB
:102F30002A4204D08A07DFD4DA689442DCD11846EA
:102F400030BD00BF0C810020108100202DE9F84F1A
:102F500047680546884697F800904FEA1913042BF6
:102F600005D0284607F08EFC0020BDE8F88F788851
:102F700009F00F0907F0FCFB2B894FEA8909044689
:102F8000834203D90146284607F0B6FD6B894B45BD
:102F9000E7D32B89A342E4D3B9F1130FE1D93B69FD
:102FA0004F4C636103F0F003FA68E02B22610ED10D
:102FB00098F83330DA0704D47B7A112B5FD00026DF
:102FC0001EE0D8F80430002BF6D0464618E04646FE
:102FD0004FF0010ADFF80CB196F83330DB0704D468
:102FE000BAF1000F3ED1366841E07368002BF7D08C
:102FF0006069834204D0314601F018F90028EFD00F
:10300000206948B1414601F011F90028A9D123698E
:1030100003F0F003E02BA4D0002EA2D0FB8823F015
:10302000C00333B1284600F001FA054600289BD0C2
:103030004768A760C9F100012846C4E900683B78E9
:1030400003F00F039B00A38107F016FC7B7A062B8D
:1030500029D0112B1BD0012B2AD14146284601F043
:103060003BF818E0237D7F2BA6D0DBF800604645B7
:103070004FF0000A08BF3668002EADD19CE707EB81
:1030800009035B88B3F5884F99D14646C4E74146AA
:10309000284606F0A9FE0023C4E90033A360A381FB
:1030A000C4E9043360E74146284608F04FFBF2E7E5
:1030B0003146606901F0BAF868B9636903F0F0035A
:1030C000E02B08D04946284607F0D9FB6F60022163
:1030D000284601F0A1F8284607F0D4FBDBE700BF43
:1030E0001CBE00200C8100202DE9F3471E46C38939
:1030F00005468A46012B1746DDF8308006D0304B56
:1031000040F233322F49304809F048FF002F47D0B2
:103110001421284607F0B0FB00284DD16B896C685C
:10312000132B06D8264B40F261322849264809F075
:1031300035FF9DF82C302672002663723B68DFF85D
:1031400094902361452323709DF82830637028896B
:1031500007F00EFBA6716080E671B9F8000007F079
:1031600007FBB9F80030A0800133A9F80030BAF1AC
:10317000000F12D1164B1B68E360A672E672B8F816
:103180002A3093B12A899A420FD93A4641462846B5
:1031900000F0F6FA02B0BDE8F087DAF80030EBE7AD
:1031A0006B6801AF1B690193E9E7D8F814303A4620
:1031B000294640469847EDE76FF00100EAE700BF77
:1031C000D0E3010836E401086AE3000842E401089C
:1031D000DCE801089C7D0020F0B4069C9DF81050AE
:1031E0009DF814601AB109B10F6807B9211D049543
:1031F000CDE90564F0BCFFF777BF000038B50C4B94
:1032000004460D461A68824207D102681A602146B8
:103210000420BDE8384009F055B831B9054B40F2FB
:1032200045120549054809F0B9FE23682B60EEE711
:10323000A07D002054E50108BFE501086AE300080D
:1032400081422DE9F84F05460F4605D12F4BAB22A1
:103250002F49304809F0A2FE47B13B68AB4205D088
:103260002A4BAD222C492B4809F098FE6E687368F2
:103270009A8892BB1A6805F11C016A6005F1080280
:1032800052F8040B8A4243F8040BF9D1012130466D
:1032900000F0C7FF304607F09FFC0446304607F0B9
:1032A000F1FA6E68DFF86480DFF87890DFF864A0E8
:1032B000AEB92846194D3946FFF7A0FF2B88A34227
:1032C00005D2124BD2221649124809F067FE2B880C
:1032D00020461B1B2B80BDE8F88F0024E1E77368B4
:1032E0003046D3F800B007F077FC0444B4F5803FD3
:1032F00005DB4346CC224946504609F04FFE304696
:10330000A4B207F0BFFA5E46D2E700BF54E5010859
:10331000D8E501086AE30008E4E501089E7D002085
:1033200013E60108F6E501082DE9F04106460F46CF
:103330000025DFF868800024D8F800302146A44634
:10334000204653B910B1FFF77BFF0544BD4201DAB7
:10335000012CF0DC2846BDE8F081D6F80CE05A6973
:10336000724509D1D6F810E09A69724504D1B3F8D4
:103370000CE0B288964508D0013460B1C27F93F862
:103380001FE096459CBF614618461A68002A18BF80
:103390009C461346D5E761461846F6E7A07D002017
:1033A00010B5044630B9064B40F2AE220549064836
:1033B00009F0F4FD21460520BDE8104008F082BF69
:1033C00054E50108FE0202086AE3000810B504464D
:1033D00030B9084B4FF42E720749084809F0DEFD5A
:1033E000606908B107F04EFA2046BDE81040FFF7CB
:1033F000D7BF00BF54E501082EE601086AE30008C4
:1034000038B5094B0024186800B938BDC37F05687A
:1034100023B1013BC37704462846F5E72146FFF771
:103420000FFF2046F7E700BFA07D00202DE9F74FF2
:10343000456807462B7803F00F03052B40F08D807D
:10344000E88807F095F9C0F30C00B34C4FEAC009C7
:10345000688807F08DF92B7803F00F03A0EB830049
:1034600083B23846019307F0B7FB238882460344B2
:103470000A2B69DCA94E3468002C73D1042008F0B3
:10348000F1FE044658B951462846FFF74DFF8245E4
:1034900063DC042008F0E6FE044600285DD01C2210
:1034A0000021201D09F072FD032304F1080205F13B
:1034B0001401E3773368346023602B4653F8040B20
:1034C0008B4242F8040BF9D1B5F806B01BF0200B83
:1034D00008D1019B4B449BB299453ED84FF6EB7205
:1034E00093423AD87D68688807F042F995F80080E1
:1034F00008F00F08A0EB8808E88807F039F9C0F356
:103500000C001FFA88F8D4F804C0C0007E680025BB
:10351000624608EB00034FF0010835709BB27570EE
:10352000B570F570B080F3805ABB002D40F0A280DA
:10353000BCF1000F00F08D80794B4FF4DA727949BD
:10354000794809F02BFD84E001462846FFF7ECFEA0
:1035500018B1238853440A2B8CDD384607F092F9C2
:10356000002670E0EB6862699A4208D12B69A26973
:103570009A4204D1A289AB889A4200F0DD80246887
:103580007AE7D2F804E0BEF80410884263D23260D1
:10359000002D5CD0EA889042C0F0A1808B4200F2FE
:1035A0009E8090422F6040F0E380BBF1000F04D07A
:1035B000A37F13F0010300F09D80B8F1000F68D1E4
:1035C0004FF00008544F3B889A44A7F800A0BBF185
:1035D000000F07D1019B9944A37F43F00103A4F896
:1035E0001C90A377B8F1010FBAD1A38B04F11C0191
:1035F0001433A38363685E6804F1080335683246B8
:1036000053F8040B8B4242F8040BF9D1A08B07F05E
:10361000AFF800237080B371F371B372F372666810
:10362000002D69D13D4B1B68A34202D01D46002BE3
:1036300070D129462046FFF7E1FD304607F0CCFA6D
:103640003B88181A3880304603B0BDE8F08F8B42B3
:1036500045D86760A9E742D0BEF8062082423ED82E
:1036600025B1EA888A4218BF4FF00008DEF8002032
:10367000754659E7EB88834206D9294B40F2AB12D5
:103680002A49294809F08AFC2F60EA88B3889A42BF
:1036900089E76368002B93D059688B88002B8FD102
:1036A00033689BB9B14206D11D4B4FF4EB722049F0
:1036B0001D4809F073FC3368002B83D0184B4FF47E
:1036C000EC721C49184809F069FC7BE75A68F088DD
:1036D000938898427FF474AF13681646E1E7384642
:1036E00007F07AFA0C4A1388181A1080384607F047
:1036F000C9F832E7984665E7D5F804806FF0130102
:10370000284607F0B9F82946304607F089FAD8F874
:10371000005085E72B6887E79E7D0020A07D002074
:1037200054E50108EEE401086AE30008D0E401086A
:1037300025E5010832E50108E88807F019F8C0F32B
:103740000C0000287FF4C0AEE08907F011F8C0F348
:103750000C0000283FF4B8AE2B4604F1080205F136
:10376000140153F8040B8B4242F8040BF9D1ABE679
:10377000BBF1000F3FF424AF4FF0000818E700BF83
:103780004B8D2DE9F04FB3F114088BB007468B46F3
:1037900048BFA3F10D0808924FEAE8081FFA88F322
:1037A000079343681E78029306F00F06B600142EA6
:1037B0000BD05B4B40F2E1225A495B4809F0EEFB2B
:1037C0006FF005000BB0BDE8F08F029BD88806F0C3
:1037D000CFFFC0F30C0310F40054049304D0504BFB
:1037E00040F2E6225149E8E73D891FFA88F8143D86
:1037F0004FEAC803ADB206930DB92846E2E7069B2F
:10380000002214210220AB42A8BF2B469BB2059395
:1038100007F0A0F8804670B37B89132B06D8404B85
:1038200040F209324249404809F0B8FB029BD8F8FF
:1038300004201946143153F8040B8B4242F8040B50
:10384000F9D1D8F80430DDF814900393B9F1000FE2
:1038500037D07C89A41BA4B24C4528BF4C4614B970
:103860003F680026F2E7052008F0FCFC824628B9F4
:10387000404607F007F84FF0FF30A3E7019402221B
:103880007B682146334400930346042006F0C4FFBE
:1038900018B95046FFF784FDEAE70990A9EB04093F
:1038A000384607F0A1F9234B1FFA89F9CAF81470BA
:1038B000CAF810304046099907F0B2F9B9F1000F83
:1038C000CED1049B2644C3F30C00BBF82A30B6B219
:1038D000133B9D42A8BF40F4005006F049FF039BF4
:1038E000D880059B03F1140080B206F041FF039BD2
:1038F000039A41465880002358469372D372DBF8EE
:103900001430089A9847404606F0BCFF059B079A7A
:10391000ED1A049B1344ADB29BB204936CE700BF55
:1039200054E501086FE401086AE3000896E4010821
:10393000B0E40108CD33000870B51826074C0546E1
:103940004643A05918B106F09DFF0023A351182348
:1039500003FB05440023237570BD00BFA47D002038
:103960002DE9F3470B9D894692469846074630B9A4
:103970002C4B4FF48B622C492C4809F00FFB002292
:103980001C21022006F0E6FF0646002847D04389A6
:103990001B2B06D8234B40F264422549234809F0EB
:1039A000FDFA7468BDF8340006F0E2FEE08097F896
:1039B0002C30062B06D01B4B40F26B421D491B4896
:1039C00009F0ECFAD8F800304A4631463846A36090
:1039D000B8F80430A3812B68C4F81230AB880025F6
:1039E000E3820A9B1B68C4F80E300C9B1B68257091
:1039F000A3610123E57063700823A370062323717C
:103A00000423637140F6060300935346FDF7F6F86E
:103A1000304606F037FF284602B0BDE8F0874FF089
:103A2000FF30F9E707E70108EFE801086AE300085B
:103A300070E70108A1E701082DE9F74F3D4B0A2285
:103A400004460020019196461146824681468046F2
:103A500094461D46BCF10A0F93F814B029D1BBF16E
:103A6000000F29D14FFA80FC013018330A28F1D118
:103A7000019B012B5BD1BCF10A0F3CD05FFA8CF6A5
:103A8000182303FB06531B7D33B12B4B40F28712E7
:103A90002A492B4809F082FA24B11823226803FB33
:103AA00006535A60182370B203FB065500236B823D
:103AB00008E0BBF1000FD7D03CB127685E68B74281
:103AC00003D140B203B0BDE8F08FBBF1010F5F8AB4
:103AD0000CD11E6826B14745C6D342B2B846C3E7EB
:103AE0004F45C1D34FFA80FEB946BDE7574524BFC5
:103AF00041B2BA46B8E70A290FD01823CEB25943CB
:103B00006B5833B10C4B40F26F120E490C4809F060
:103B100045FA3046FFF710FFB2E7BEF10A0F02D0B8
:103B20005FFA8EF6F5E70A2A01D0D6B2F1E74FF038
:103B3000FF30C7E7A47D002007E7010851E6010830
:103B40006AE300083AE6010870B50646074D00240E
:103B50002B7D2BB1AB68B34202D12046FFF7ECFEC0
:103B6000013418350A2CF3D170BD00BFA47D0020AC
:103B70002DE9F047804686B00C4649B9494B4FF4D1
:103B800022724949494809F009FA06B0BDE8F087B0
:103B900046683388B3F5807F08D13379062B05D189
:103BA0007379042B02D17388082B03D0404606F0AA
:103BB00069FEEAE7D6F80E3006F108074D6805936E
:103BC000B36915B19D4259D000254FF0020994F810
:103BD0002C30062B06D0334B40F2AB12344933481D
:103BE00009F0DCF9059800283CD0214600F01EFBC6
:103BF0008246B8BB059B03F0F003E02B32D0494668
:103C000005A8FFF719FF00282CDB1822294B4FF0DD
:103C1000020E02FB00F103EB010C8CF814E04FF0F4
:103C20000C0ECCF8084012FB00E2386803EB020EE1
:103C30009850BA88AEF8042053F80190ACF812A05E
:103C4000B9F1000F0ED043F801A04FF4006304F166
:103C50002D024946009320463B46FCF7CFFF4846DD
:103C600006F010FEF388B3F5807F0AD0B3F5007F2D
:103C70009CD105A9204601F039F997E70125A9460D
:103C8000A5E7002D92D0022204F12D0320460392D5
:103C900005AA1946CDE90172221D00923A46FFF7A6
:103CA0005FFE83E707E70108EFE801086AE3000821
:103CB00099E60108A47D00201FB50246012400F109
:103CC0002D030432CDE902140449009201911946F2
:103CD000034AFFF745FE04B010BD00BF92E30008A1
:103CE000CCE20008F8B5134C002502260427227DFB
:103CF0006AB1638A01339BB2B3F5967F638203D2C4
:103D0000012A09D1042B0FD92846FFF715FE0135EA
:103D100018340A2DEBD1F8BD032A01D12775F6E737
:103D2000042AF4D12675F2E7211DA068FFF7C4FF2D
:103D3000EDE700BFA47D00202DE9F0431823254DB9
:103D400085B0064603FB0253894614461B7D012BB2
:103D500006D8214B40F2ED222049214809F01EF9F6
:103D6000182304EB440106F12D0803FB0454C90099
:103D7000237D01F10C07022B2F440BD1638AB3F58D
:103D80008E7F13D9043130462944FFF795FF08B9D7
:103D9000032323754FF4006342464946304600939F
:103DA0003B46FCF72BFF05B0BDE8F083B3F5877FFA
:103DB000F0D3012304313A46304603932944094B9A
:103DC000029141460193331D00934346FFF7C8FD1E
:103DD000DDE700BFA47D002007E70108BDE601087C
:103DE0006AE3000892E300082DE9F3478846044699
:103DF00001461646D8F8000000F018FA00284DD108
:103E0000D8F8003003F0F002E02A47D0002B45D06C
:103E100001214046FFF710FE051E42DB384F1823F4
:103E200003FB05731A7D002A4FD101229C601A758D
:103E300041462046FFF740FF002E4AD102B0BDE8C0
:103E4000F087FBD13446DFF8C080DFF8C090DFF8A0
:103E5000C0A0628923899A4208D1236833B14346BE
:103E60004FF47B724946504609F098F8237B012BAA
:103E700019D12468002CECD1B046304606F0B4FECF
:103E8000182303FB05F21C46B85808B106F0FAFCEB
:103E900004FB05F3002047F80380CFE76FF00F0025
:103EA000CCE72846CAE700222189022006F052FD0D
:103EB000804638B1314606F0F7FE0028E0D0404693
:103EC00006F0E0FC4FF0FF30B8E7002EB0D04FF026
:103ED000FF30182303FB0572127D012AB1D9094A6C
:103EE0003146204615700C2213FB05234FF4006267
:103EF0003B44009204F12D02FCF780FE9EE700BFD8
:103F0000A47D0020947E002007E70108EDE601086B
:103F10006AE30008F0B50E4685B01546044630B990
:103F20003D4B40F21B323D493D4809F037F836B968
:103F3000394B4FF447723B49394809F02FF835B9EE
:103F4000354B40F21D323849354809F027F82146F3
:103F5000286800F06BF9002858D12B6803F0F002B4
:103F6000E02A1BD10123ADF808305E238DF80A301A
:103F70006B7803F07F038DF80B30AB788DF80C3045
:103F8000EB788DF80D3002AB4FF4006231462046DD
:103F9000009204F12D02FCF731FE1FE06268A16877
:103FA0005A400A4208D09BB24FF6A962934203D00E
:103FB000E3686BB304F10C051C4B18201C491A78FC
:103FC00000FB0210017D0129194609D92F684368B9
:103FD0009F4205D131462046FFF7AEFE05B0F0BD49
:103FE000134B0022187D012806D92F685868874294
:103FF00002D1D2B20A70EDE7013218330A2AF1D1A8
:10400000324629462046FFF7EFFEE7E7094BBBE7BC
:104010006FF00300E2E700BF07E70108EFE80108DF
:104020006AE30008420302087AE60108947E002051
:10403000A47D0020CCE20008F0B5044687B00F460E
:10404000164624210022012006F084FC05460028A3
:1040500039D04389232B06D81C4B4FF4B1721C492D
:104060001C4808F09BFF226800236C6802F11C00CA
:10407000237104F108016371A371E3711346277082
:10408000667053F8046B834241F8046BF9D1D3682E
:1040900005A80593FEF72EFF074688B1002669891B
:1040A0002046A670E67004F095FF0123608005AA03
:1040B000029731462846CDE90063FF23FFF78CF8CD
:1040C000284606F0DFFB07B0F0BD00BF49E8010855
:1040D000B0E801086AE30008494B2DE9F043D3F842
:1040E000089085B004460F4699F80050984605F0B0
:1040F0000F05AD00132D2AD94289032A27D942681A
:104100001278082A23D1586900F0F002E02A1ED064
:10411000196800F08BF80646C8B92389072B16D911
:1041200005F10E01204606F0A7FB002858D0218992
:1041300032460220294489B206F00CFC064630B112
:10414000428905F108039A4207D206F09BFB2046FC
:1041500005B0BDE8F04306F095BB49462A464068E5
:1041600008F006FF6942304606F086FB38B1254B61
:10417000AF222549254808F011FF3046E5E72146E2
:10418000304606F091FD0028F7D12046344606F06F
:1041900079FB29462046666806F06EFB0028D6D1DA
:1041A00061684FF6F772D8F81430CB60D8F8103049
:1041B0000B6173883070204693424FF000028CBF31
:1041C000093308339BB27380FF238A720B72CA7261
:1041D00001210297CDE900210D49FEF7FDFFB6E769
:1041E000C5F57F412046F23109B206F045FB0028B3
:1041F000CFD0044BC0220749044808F0CFFEA6E701
:104200001CBE002049E80108E2E701086AE3000853
:1042100030BE002017E801080A4604300321FFF7EA
:104220000BBF0A4604300B21FFF706BF431E0333C2
:1042300012D891F8333013F002030BD04A6882424F
:104240000CD08B6842401A4208D1DB4383430CBF39
:1042500001230023184670470123FBE70023F9E7F9
:10426000437A8B421FBF002341728372C38270471F
:1042700038B5838A04460D460233442B06D90A4BCF
:1042800040F2825209490A4808F088FEA38A280AA7
:104290002269D11881F8F000991C0133A18212FA29
:1042A00083F383F8F05038BD54EB0108BBEB0108F1
:1042B0006AE3000870B5838A1546023204460E464A
:1042C0001344442B06D90A4B4FF4AE6209490A48FD
:1042D00008F064FEA38A2269D11881F8F060991C65
:1042E0000133A18212FA83F383F8F05070BD00BF4E
:1042F00054EB010891EA01086AE3000838B5838AA3
:1043000004460D46432B06D9074B40F27B52074922
:10431000074808F043FEA28A2369511C1344A18276
:1043200083F8F05038BD00BF54EB0108D9EA01080A
:104330006AE3000838B5838A05460C460433442BEB
:1043400006D9104B40F28A520F49104808F026FE59
:10435000AB8A200E2A69D11881F8F000591C200C74
:1043600012FA81F181F8F000991C200A12FA81F109
:1043700081F8F000191D0333A98212FA83F383F840
:10438000F04038BD54EB010814EB01086AE3000863
:104390002DE9F0410C461646074650B9634B40F2F2
:1043A0001D726349634808F0F9FD6FF00F00BDE826
:1043B000F08149B95D4B40F21E725F495D4808F0DB
:1043C000EDFD6FF00500F2E7CB6833B1574B40F2DB
:1043D0001F725A49574808F0E1FD236933B1534B26
:1043E0004FF4E4625649534808F0D8FD00224FF4D8
:1043F0009A71104606F0AEFAE060002800F0928054
:104400004389B3F59A7F06D2484B4FF4E5624D4994
:10441000484808F0C3FD032E02D1637A032B07D16D
:10442000A37A494D13B908F0D1FD28602B682360A9
:10443000E3680025D3F804800123C4F8108088F8CD
:10444000003088F8013097F82C3088F8035088F84D
:104450000230206806F08FF92369042EC8F80400A2
:104460001D725D729D72DD721D735D739D73DD73D0
:1044700008D0F21F012A05D9032E05D1627A043A29
:10448000012A01D87A68DA60002203F11C002D3776
:104490001A745A749A74DA741A755A759A75DA75A8
:1044A0001A765A769A76DA7617F8015C91B28D42CE
:1044B00036D9052934D8B95C013200F8011B102A1D
:1044C000F4D103F12C0203F16C01002002F8010B7E
:1044D0008A42FBD103F1EC00002102F8011B90425B
:1044E000FBD16FF07D006322F03303F8030C5320FF
:1044F00003F8042C03F8012C002203F8020CA1821B
:1045000003F8012B0132442AFAD101223521204639
:10451000FFF7D0FE20463146FFF7F0FE002046E7C9
:104520000021C9E74FF0FF3041E700BF54EB01081D
:1045300015E901086AE3000834E9010852E90108B5
:1045400077E901089EE90108A07E002038B5446A99
:10455000054608212046FFF783FE002204F12801CA
:104560002846FFF741FCA37AFF2B1CBF0133A3723F
:104570000123E38238BD000037B5054640B93D4B05
:1045800040F2FE323C493D4808F008FD03B030BD22
:10459000446A24B9374B4FF480623949F3E700236A
:1045A0002384636B5A1C0CD01E33B3F5701F36BFC7
:1045B0003C224FF6FF73B3FBF2F39AB2002B43D0C9
:1045C0006284A36B581C0ED01E33B3F5701F36BF28
:1045D0003C224FF6FF73B3FBF2F39AB2002B36D0B6
:1045E0002283238BA383E36B591C0DD01E33B3F5B9
:1045F000701F36BF3C224FF6FF73B3FBF2F39AB243
:1046000043B36283638BE383638B228B9A4202D32F
:104610000BB100232383E37AFBB1E36A0093236B9E
:1046200001932BB9A36A009A134043F0807301935E
:1046300020460A21FFF714FE01AB6A4604F1280167
:10464000284605F0D5FDA1E701236384B9E70123DE
:104650002383C6E701236383D4E794F828301A063E
:1046600001D4FF23DAE7BF2B8CBF6FF07F434FF6F7
:10467000FF73D3E754EB0108E4E801086AE300089C
:10468000FDE8010838B5154D2B78F3B9144C2368B3
:104690002BB1144BD9221449144808F07FFC05F0C3
:1046A00053FD2060B0B1027A114942F0200202723B
:1046B000442205F02FFC43220D49206805F000FD3F
:1046C00000220C49206805F023FD2B7800200133DF
:1046D0002B7038BD4FF0FF30FBE700BF9C7E002001
:1046E000987E002054EB01086CEA01086AE3000898
:1046F000DCE80108FD4A000810B5044640B9174B34
:1047000040F2827216491748BDE8104008F046BCD6
:10471000036933B9114B40F283721349114808F011
:104720003DFCA38A432B06D90C4B40F284720F49FF
:104730000C4808F033FCA38A2269591C1344A18257
:10474000FF2183F8F0100021A38A432B00D910BD6C
:10475000581C1344A08283F8F010F5E754EB0108CD
:10476000FCEB01086AE300081EEC01084AEC0108B2
:1047700038B50023174D0446C0E90B33EB7813B16D
:10478000154BDB6843632B79DBB1134B1B69A363C8
:104790006B79CBB1104B5B69E36363681B69A36200
:1047A000AB792BB10C4B986905F0E5FF0123E06272
:1047B000E372EB7923B1084BD86905F0DCFF206385
:1047C00038BD636B5B08E2E7636BC3EBC303DB08D5
:1047D000E2E700BF808000208880002010B50446FA
:1047E00040B9114B40F26D7210491148BDE81040BC
:1047F00008F0D4BBC36833B90B4B40F26E720D495D
:104800000B4808F0CBFB236933B9074B40F26F72BA
:104810000949074808F0C2FBE06808B106F032F821
:104820000023C4E9033310BD54EB010802EA010878
:104830006AE3000820EA010845EA010873B500238D
:10484000446A06460621A3622046FFF709FD0122BD
:1048500021463046FFF79CFD054678BB02223921F0
:104860002046FFF727FD718D2046FFF701FD03224B
:1048700037212046FFF71EFD01212046FFF73EFDB0
:1048800003212046FFF73AFD1C212046FFF736FDA5
:104890002046FFF731FFA18AE068F03189B206F0C7
:1048A0002BF9134B1348144ACDE900634323E16805
:1048B000006805F083FB2046FFF790FFA37A2846A7
:1048C000FF2B1CBF0133A372A27A052A96BF4FF4B7
:1048D0007A734EF6602393404FF4FA7298BF9BB2FE
:1048E00003F2F313B3FBF2F3E38202B070BD00BF37
:1048F000DCE80108987E0020E0E8010873B5446A0E
:10490000064601212046FFF7ABFC03222146304634
:10491000FFF73EFD0546002847D1022239212046F7
:10492000FFF7C8FC718D2046FFF7A2FC042232215C
:104930002046FFF7BFFCA06A05F01DFF0146204698
:10494000FFF7F8FC042236212046FFF7B3FC606A2B
:1049500005F011FF01462046FFF7ECFC032237214A
:104960002046FFF7A7FC01212046FFF7C7FC0321E3
:104970002046FFF7C3FC1C212046FFF7BFFC204662
:10498000FFF7BAFEA18AE068F03189B206F0B4F808
:10499000124B1348134ACDE900634323E1680068D2
:1049A00005F00CFB2046FFF719FFA37A2846FF2BE2
:1049B0001CBF0133A372A27A052A96BF4FF47A7303
:1049C0004EF6602393404FF4FA7298BF9BB203F205
:1049D000F313B3FBF2F3E38202B070BDDCE801082D
:1049E000987E0020E0E8010873B5446A064603217A
:1049F0002046FFF735FC032221463046FFF7C8FC6E
:104A0000054600283AD1022239212046FFF752FC00
:104A10004FF410712046FFF72BFC04223221204670
:104A2000FFF748FCA06A05F0A6FE01462046FFF706
:104A300081FC032237212046FFF73CFC0121204660
:104A4000FFF75CFC03212046FFF758FC1C212046A1
:104A5000FFF754FC2046FFF74FFEA18AE068F031D3
:104A600089B206F049F8134800964323124AE168D8
:104A7000006805F009FB2046FFF7B0FEA37A284640
:104A8000FF2B1CBF0133A372A37A092B96BFC3EB84
:104A9000431242F2107303EB82034FF4FA729CBF8D
:104AA000DB009BB203F2F313B3FBF2F3E38202B039
:104AB00070BD00BF987E0020E0E8010838B50A4DBF
:104AC0002B782BB9094BF32209490A4808F066FAFA
:104AD0002C78013CE4B22C7024B9074D286805F00D
:104AE0001BFB2C6038BD00BF9C7E002054EB0108EE
:104AF000DEE901086AE30008987E0020764B2DE984
:104B0000F04F5E6889B0D6F824900192B9F1000F99
:104B100050D099F80830002B49D0D9F804305468A7
:104B200033B16E4B4FF4D5626D496E4808F036FADA
:104B3000019B5B892B2B3AD92378022B37D196F82E
:104B40002C0006F12D0104F11C020023DDB2A84265
:104B500001D9062B24D1606805F00DFED9F800308C
:104B6000984224D1604B002201995A6049891A6009
:104B70002B291CD901994FF0F00B0392496802933D
:104B8000C9F804100199B1F808A0DDF80480B8F85C
:104B90000A305B4514D9D8F804305D460493B4E07C
:104BA00011F8017B013312F8015BAF42CED0002334
:104BB000C9F80430019805F065FE09B0BDE8F08F32
:104BC000ABEB0302AAEB030AD8F800801FFA82FBC2
:104BD0001FFA8AFAB8F1000FD9D1E8E7D8F8003007
:104BE000002B00F0A4805B681B78A0E0362C3DD041
:104BF00036D33A2C40D03B2C40F0A980042B53D024
:104C0000364B40F229620AE0013D23464FF0FF3760
:104C1000ADB29FE0042B35D0304B40F2F652334911
:104C200005E0032B31D82D4B40F2FB5230492D4883
:104C300008F0B4F9BBE7042B2AD0284B40F20962F4
:104C4000EDE7012B04D0254B40F217622949EEE72E
:104C5000BBF1F00F1FD0214B40F219622649E6E765
:104C6000012B1ED01D4B40F21D62EFE7042B15D027
:104C70001A4B40F22162D2E7042B12D0174B40F2BC
:104C80002562CCE71C46062764E00727042461E080
:104C90001C4603275EE01C4600275BE01C460227FB
:104CA00058E01C461F4655E01C46052752E0012CE3
:104CB00004D00A4B4FF4C9621049B8E79DF81C3084
:104CC00007936BE0D8F80080B8F1000F1AD1034BBE
:104CD00040F254620A49AAE71CBE002054EB0108C6
:104CE00089EC01086AE30008808000209CEC010840
:104CF000A5EC0108B7EC0108C0EC0108E8EC0108DC
:104D0000FBEC0108D8F804300493554559D2049BB4
:104D10005C5DFF2C55D0AB1CB8F80A209BB2059304
:104D20006B1C9342BFF65AAF049B2B445B78342C28
:104D300087D03FF65BAF012C3FF46CAF002C3FF403
:104D400063AF032C3FF46DAF332C3FF474AF4FF0DF
:104D5000FF370024023513FA85F5ADB22CB30023DA
:104D6000072F079306D9514B40F2366250495148FC
:104D700008F014F9029BDB5DBBB9A2B2059B07A941
:104D80004046059206F016F8059B83427FF40FAF6C
:104D9000042C8CD1079805F0EEFC07900123029AB1
:104DA000D355079B444A42F82730B8F80A309D4251
:104DB000ABD3ED1AAAEB030AADB21FFA8AFA554536
:104DC00080D3029B1B78CBB9039B03BB029B5B7810
:104DD000002B3FF4ECAE384A1379052B32D199F809
:104DE0000930012B23D1706AFFF7C2FC96F83330EB
:104DF00030461B0723D5FFF7A9FBD8E62E4B002230
:104E000002991B680A70012B0CD0022B06D10023DB
:104E10004FF06C0A4FF02C0B0393B6E6032BD3D163
:104E2000012303934FF0EC0A4FF06C0BADE6033B0C
:104E3000022B3FF6BCAE706AFFF79AFC3046FFF7D4
:104E40009BFBB4E6062B15D199F80930DA1E022A2D
:104E500002D9012B7FF4ABAE706A0C21FFF700FA88
:104E6000164B30461A46194605F0C2F93046FFF790
:104E7000E5FC9CE6022B7FF49AAE99F80930062BEC
:104E80007FF495AE039BA9F81630029B9B78002B0C
:104E90003FF48DAE746A906805F06DFC63686062E3
:104EA00030461B69A362FFF729FD80E654EB010839
:104EB000D7EC01086AE3000888800020DCE80108DC
:104EC000436A93B15A7A0A2A0BD8DFE802F00E0A35
:104ED0000A0606060A0A0A0A060000229A72FFF764
:104EE00083BD00229A72FFF7A9BC704737B505460B
:104EF00048B9244B40F27B322349244803B0BDE833
:104F0000304008F04BB8446A002C39D0637A082B43
:104F100036D10A68A36A9A4232D10C212046FFF7A3
:104F20009FF9042221462846FFF732FA08BB0422E3
:104F300032212046FFF7BEF9A06A05F01CFC0146AD
:104F40002046FFF7F7F92046FFF7D6FBA18AE06875
:104F5000F03189B205F0D0FD0D4B0E480E4ACDE977
:104F600000534323E168006805F028F82046FFF766
:104F700035FCA37AFF2B1CBF0133A3721423E382F9
:104F800003B030BD54EB0108EFE801086AE3000804
:104F9000DCE80108987E0020E0E8010873B5446A67
:104FA000064605212046FFF75BF9032221463046DD
:104FB000FFF7EEF9054670BB022239212046FFF7C4
:104FC00079F9718D2046FFF753F9032237212046E6
:104FD000FFF770F901212046FFF790F903212046E1
:104FE000FFF78CF91C212046FFF788F92046FFF7D0
:104FF00083FBA18AE068F03189B205F07DFD13489A
:105000000096432304F12402E168006805F03CF8AF
:105010002046FFF7E3FBA37A2846FF2B1CBF013392
:10502000A372A37A092B96BFC3EB431244F6206305
:1050300003EB82034FF4FA729CBF1B019BB203F295
:10504000F313B3FBF2F3E38202B070BD987E00204D
:1050500010B540B90F4B40F242520F490F48BDE81E
:10506000104007F09BBF446A94B1636833B1094BA9
:1050700040F24F520A49094807F090FF00212046AC
:10508000FFF7EEF8237A1BB1FFF718FD0023237218
:1050900010BD00BF54EB01086BED01086AE3000886
:1050A00089EC010838B5054648B9274B40F2D622AD
:1050B0002649274807F072FF6FF00F0038BD90F8BF
:1050C0003330DB0704D4204B40F2D7222149F0E7EC
:1050D000438D446AB3F5107F02D24FF0FF30EDE705
:1050E000D4B9402005F0AAFA04460028F5D0686239
:1050F00040220021204607F049FFFFF7C3FA0028AD
:10510000EBD1012328462372FFF798FB0028D5D066
:105110002846FFF79DFFE0E7E36833B10A4B4FF401
:105120003C720D490A4807F039FF636833B1064BFA
:1051300040F2F1220949064807F030FF237A002B9C
:10514000D6D0FFF7BBFCD3E754EB0108EFE801082A
:105150006AE3000832ED010853ED010889EC01080B
:1051600050B1406A40B1407A0A2806D0043801287C
:105170008CBF00200120C0B270470120FBE7000077
:105180007FB5446A0646002C43D0636A0393FFF759
:10519000E7FF002105462046FFF762F80023C4E937
:1051A0000733C4E90933C4E90B33C4E90D33E363BE
:1051B00065B3072221463046FFF7EAF80546F8B9FD
:1051C000042236212046FFF775F8039805F0D3FA3C
:1051D00001462046FFF7AEF82046FFF78DFAA18A78
:1051E000E068F03189B205F087FC0B480096432354
:1051F00003AAE168006804F047FF2046FFF7EEFAD3
:10520000064B30461A46194604F0F2FF284604B011
:1052100070BD6FF00F05F9E7987E0020DCE801080B
:10522000514B2DE9F7431D6840F219264F4FDFF827
:10523000408115B903B0BDE8F0836C6A7CB1637A34
:105240006BB1618C69B1228C013292B2914222849D
:1052500007D12846FFF794FF2846FFF7EFFA2D689D
:10526000E7E7B4F81E90B9F1000F64D009F1FF32FE
:10527000B9F1010FE2835ED1013BDBB2092BEED81D
:1052800026FA03F3DB07EAD504212046FEF7E8FF00
:10529000032221462846FFF77BF860BB0222392112
:1052A0002046FFF707F8698D2046FEF7E1FF03224D
:1052B00037212046FEF7FEFF49462046FFF71EF83D
:1052C00003212046FFF71AF81C212046FFF716F8A5
:1052D0002046FFF711FAA18AE068F03189B205F0A3
:1052E0000BFC009543234246E168386804F0CCFE8D
:1052F0002046FFF773FAA37AFF2B1CBF0133A3727A
:10530000A37A092B96BFC3EB431242F2107303EB4F
:1053100082034FF4FA729CBFDB009BB203F2F313DB
:10532000B3FBF2F3228CE382638C9B1A012B96DD94
:105330005B10E38393E7A28B002A90D0511E012AD1
:10534000A1838CD103F0FB02012A01D00A2B86D164
:105350002846FFF723FE638B228C9B1A012BC4BFC8
:105360005B10A3837BE700BF0C810020987E0020A8
:10537000E0E8010838B51D4B00251C6804B938BDAC
:10538000636A23B1DA8A012A03D9013ADA822468EE
:10539000F4E7FCD15A7ADD820C2A01D0062A03D127
:1053A0002046FFF74BFAF2E7012A09D19B7A204603
:1053B000052B02D8FFF7A2FAE9E7FFF7E1FEEFE7D6
:1053C000082A09D19B7A2046012B02D8FFF7BEF8A4
:1053D000DDE7FFF7D1F8DAE7032AD8D19B7A204638
:1053E000012BDED8FFF700FBD1E700BF0C810020C6
:1053F0001E4B1B6807B513B11D4A106898471D4D19
:105400001D4E1E4C1B48FBF7EBFC2846FBF7EDFC42
:1054100001A9304605F0D4FD2846FBF7E1FC019BCD
:1054200033B9234669221649164807F0B7FDECE761
:105430001A78032A0CD0042A10D0022A12D15868F4
:10544000D3E9021290470199092006F03BFFDCE7FF
:10545000D3E90120904701990820F6E7D3E901201C
:105460009047D2E723469B22DDE700BFA87E0020BD
:10547000AC7E0020A8800020A47E0020DCED010886
:105480003EEE01086AE30008F8B5074610480E46EC
:105490001546FBF742FC28B90E4BB5220E490F48C2
:1054A00007F07CFD092006F0DDFE044668B102230A
:1054B000C56001460370C0E901760548FBF7F0FBC3
:1054C00028B12146092006F0FDFE4FF0FF30F8BD5F
:1054D000A47E0020DCED0108CFED01086AE300089E
:1054E00091F8333013F0180F14BF024A024AFFF745
:1054F000CBBF00BF650B00084D2F000870B5064CF0
:105500000E4605462046FBF76BFC3046A847204672
:10551000FBF76BFC002070BDA880002037B5054666
:105520000C4604F04FFC134B062113481D60134B2F
:105530001C60FBF79BFB30B1114B40F2D5121149B7
:10554000114807F02BFD1148FBF73CFC30B10C4B28
:1055500040F2D9120E490C4807F020FD0223002228
:105560000C4900934FF47A730B48FBF741FC03B0EE
:1055700030BD00BFA87E0020A47E0020AC7E0020AD
:10558000DCED010884ED01086AE30008A880002032
:10559000A7ED0108F1530008C8ED010810B5044655
:1055A00060B1006820B105F06DF90023C4E9003353
:1055B00021460620BDE8104006F084BE10BD000064
:1055C00008B540B90F4BC2220F49104807F0E6FC5E
:1055D0006FF00F0008BD19B90A4BC3220C49F4E75C
:1055E0001AB9084BC4220B49EFE7436833B15B6833
:1055F0000B60436800205B891380EBE76FF00100CC
:10560000E8E700BF5CEE0108FDEE01086AE3000870
:1056100016EF010833EF01080A6810B50C320C468A
:10562000FFF76CFF08B994F9040010BD7FB558B9B5
:105630000B4B4FF44A720B490B4807F0AFFC6FF06D
:105640000F0007B05DF804FB292301908DF80C10C2
:1056500001A906488DF80D30FFF7DEFFF1E700BF26
:10566000A4EF010808F001086AE3000821690008B6
:1056700070B5002386B004460E46009351B93E4BE8
:1056800040F2E7123D493E4807F088FC6FF00F00FA
:1056900006B070BD0B6020B9374B40F2E9123949B2
:1056A000F1E7054615F8103B03F0F003102B0ED17F
:1056B0002846FBF732FB50B904F11400FBF72DFB31
:1056C000002814BF6FF00A006FF00E00E0E72846D4
:1056D000FBF723FB48B9284B40F2F5122A4928482A
:1056E00007F05CFC6FF00A00D2E794F9080010F1B3
:1056F0000C0FCDDB002269462846FBF7DBFA237846
:1057000003F0F003102B009B2AD10194ABB11B894D
:1057100001A91E480393FFF77FFF009AB2B9636A9D
:1057200013B1012120469847636843B994F90800F2
:10573000002808BF6FF00D00AAE70123E8E7012168
:105740002046FFF773FF6FF00E00A1E71289636A2E
:1057500013B1012120469847009B0020336097E752
:1057600033B9054B40F23E220949054807F016FCC3
:10577000009B1B681A89EAE7A4EF0108B1F0010851
:105780006AE30008CFF00108EAF00108E1670008C9
:1057900009F1010870B50D4686B0114600F0AAFD6A
:1057A000044600283ED0019001A920488DF80C50F5
:1057B000FFF732FF002835D063682BB11C4B8922DC
:1057C0001C491D4807F0EAFB04F110052846FBF7C9
:1057D000A4FA28B9164B8A221849174807F0DEFBAD
:1057E00004F11400FBF799FA28B1114B8C221449EB
:1057F000114807F0D3FB04F10C063046FBF7CDFA55
:1058000028B90B4B8F220F490B4807F0C7FB3046D6
:10581000FBF7C0FA2846FBF739FA21460024072097
:1058200006F050FD204606B070BD00BF7D62000846
:10583000A4EF010841F001086AE3000862F00108E2
:1058400077F0010898F0010830B5044687B078B1C8
:105850002923019001A907488DF80D30FFF7DCFEE0
:10586000054610B9204600F089FD284607B030BD36
:105870000546FAE7716500087FB550B90B4BFF226A
:105880000B490C4807F08AFB6FF00F0007B05DF87A
:1058900004FB094B0190002908BF19460748ADF8E1
:1058A0001020039101A9FFF7B7FEEFE7A4EF01086D
:1058B00089EF01086AE30008DCE80108A166000836
:1058C0007FB558B9084B4FF4B4720849084807F03F
:1058D00065FB6FF00F0007B05DF804FB019001A9B4
:1058E0000448FFF799FEF6E7A4EF010824F0010849
:1058F0006AE3000801670008F7B504460D4651B990
:10590000204B40F28D122049204807F047FB6FF0F2
:105910000F0003B0F0BD00260E6020B9194B40F215
:105920008F121B49F0E790F9080010F10C0FF0DB23
:1059300004F114073846FBF7F0F9D0B13846324687
:1059400001A9FBF7B7F9636A019F1BB13246012138
:10595000204698470F4B019A9A4210D067B9FBF73F
:1059600057FA94F908300C33A4BFF1232372FBF7E4
:105970005BFA6FF00E00CCE72F600020C9E76FF0F4
:105980000C00C6E7A4EF01084CEF01086AE3000829
:105990006CEF0108AC80002073B505460E4659B97E
:1059A000204B4FF41D7220496FF00F051F4807F080
:1059B000F5FA284602B070BD00220A6020B9194BE2
:1059C00040F276221A49EFE7037803F0F003102B38
:1059D00024D10620019206F045FC0446D8B12846A1
:1059E00001A9FFF745FE054620B12146062006F035
:1059F00069FCDEE7019B33B90A4B40F28A220D496C
:105A00000A4807F0CBFA019BC4E900330023A381C5
:105A1000A3603460CDE74FF0FF35CAE7FFF728FEFB
:105A20000546C6E7A4EF0108B1F001086AE30008E3
:105A3000CFF00108FE02020870B586B016460A9D36
:105A400050B91D4B40F2E6221C491D4807F0A6FA4A
:105A50006FF00F0006B070BD027802F0F002102A5D
:105A600009D0154B40F2E7221649154807F096FA7F
:105A70006FF00500EEE70EB90020EBE7047E03F0BF
:105A8000040204F00204144302D0002DF0D00124DB
:105A90000190039101A90C488DF814300496FFF78A
:105AA000BBFD0028D6D1002DE6D014B1049B2B609D
:105AB000D0E72E60CEE700BFA4EF010815F1010882
:105AC0006AE3000831F10108396800080321FFF793
:105AD000ADBD00002DE9F047064617461D46BDF84E
